{
  "contractName": "Validation",
  "abi": [
    {
      "inputs": [],
      "payable": false,
      "stateMutability": "nonpayable",
      "type": "constructor"
    },
    {
      "anonymous": false,
      "inputs": [
        {
          "indexed": false,
          "internalType": "bytes32",
          "name": "_certificateId",
          "type": "bytes32"
        }
      ],
      "name": "certificateGenerated",
      "type": "event"
    },
    {
      "constant": true,
      "inputs": [
        {
          "internalType": "bytes32",
          "name": "",
          "type": "bytes32"
        }
      ],
      "name": "certificates",
      "outputs": [
        {
          "internalType": "string",
          "name": "Given_name",
          "type": "string"
        },
        {
          "internalType": "string",
          "name": "Family_name",
          "type": "string"
        },
        {
          "internalType": "uint256",
          "name": "National_identification_number",
          "type": "uint256"
        },
        {
          "internalType": "string",
          "name": "Date_of_birth",
          "type": "string"
        },
        {
          "internalType": "string",
          "name": "Scientific_discipline",
          "type": "string"
        },
        {
          "internalType": "string",
          "name": "Diploma_issued_by",
          "type": "string"
        },
        {
          "internalType": "string",
          "name": "Diploma_issue_date",
          "type": "string"
        }
      ],
      "payable": false,
      "stateMutability": "view",
      "type": "function"
    },
    {
      "constant": false,
      "inputs": [
        {
          "internalType": "string",
          "name": "_id",
          "type": "string"
        },
        {
          "internalType": "string",
          "name": "_Given_name",
          "type": "string"
        },
        {
          "internalType": "string",
          "name": "_Family_name",
          "type": "string"
        },
        {
          "internalType": "uint256",
          "name": "_National_identification_number",
          "type": "uint256"
        },
        {
          "internalType": "string",
          "name": "_Date_of_birth",
          "type": "string"
        },
        {
          "internalType": "string",
          "name": "_Scientific_discipline",
          "type": "string"
        },
        {
          "internalType": "string",
          "name": "_Diploma_issued_by",
          "type": "string"
        },
        {
          "internalType": "string",
          "name": "_Diploma_issue_date",
          "type": "string"
        }
      ],
      "name": "generateCertificate",
      "outputs": [],
      "payable": false,
      "stateMutability": "nonpayable",
      "type": "function"
    },
    {
      "constant": true,
      "inputs": [
        {
          "internalType": "string",
          "name": "_id",
          "type": "string"
        }
      ],
      "name": "getData",
      "outputs": [
        {
          "internalType": "string",
          "name": "",
          "type": "string"
        },
        {
          "internalType": "string",
          "name": "",
          "type": "string"
        },
        {
          "internalType": "uint256",
          "name": "",
          "type": "uint256"
        },
        {
          "internalType": "string",
          "name": "",
          "type": "string"
        },
        {
          "internalType": "string",
          "name": "",
          "type": "string"
        },
        {
          "internalType": "string",
          "name": "",
          "type": "string"
        },
        {
          "internalType": "string",
          "name": "",
          "type": "string"
        }
      ],
      "payable": false,
      "stateMutability": "view",
      "type": "function"
    }
  ],
  "bytecode": "0x608060405234801561001057600080fd5b5061168c806100206000396000f3fe608060405234801561001057600080fd5b50600436106100415760003560e01c806367d5c83614610046578063742f068814610496578063ae55c88814610760575b600080fd5b610494600480360361010081101561005d57600080fd5b810190808035906020019064010000000081111561007a57600080fd5b82018360208201111561008c57600080fd5b803590602001918460018302840111640100000000831117156100ae57600080fd5b91908080601f016020809104026020016040519081016040528093929190818152602001838380828437600081840152601f19601f8201169050808301925050505050505091929192908035906020019064010000000081111561011157600080fd5b82018360208201111561012357600080fd5b8035906020019184600183028401116401000000008311171561014557600080fd5b91908080601f016020809104026020016040519081016040528093929190818152602001838380828437600081840152601f19601f820116905080830192505050505050509192919290803590602001906401000000008111156101a857600080fd5b8201836020820111156101ba57600080fd5b803590602001918460018302840111640100000000831117156101dc57600080fd5b91908080601f016020809104026020016040519081016040528093929190818152602001838380828437600081840152601f19601f820116905080830192505050505050509192919290803590602001909291908035906020019064010000000081111561024957600080fd5b82018360208201111561025b57600080fd5b8035906020019184600183028401116401000000008311171561027d57600080fd5b91908080601f016020809104026020016040519081016040528093929190818152602001838380828437600081840152601f19601f820116905080830192505050505050509192919290803590602001906401000000008111156102e057600080fd5b8201836020820111156102f257600080fd5b8035906020019184600183028401116401000000008311171561031457600080fd5b91908080601f016020809104026020016040519081016040528093929190818152602001838380828437600081840152601f19601f8201169050808301925050505050505091929192908035906020019064010000000081111561037757600080fd5b82018360208201111561038957600080fd5b803590602001918460018302840111640100000000831117156103ab57600080fd5b91908080601f016020809104026020016040519081016040528093929190818152602001838380828437600081840152601f19601f8201169050808301925050505050505091929192908035906020019064010000000081111561040e57600080fd5b82018360208201111561042057600080fd5b8035906020019184600183028401116401000000008311171561044257600080fd5b91908080601f016020809104026020016040519081016040528093929190818152602001838380828437600081840152601f19601f820116905080830192505050505050509192919290505050610ab7565b005b6104c2600480360360208110156104ac57600080fd5b8101908080359060200190929190505050610c74565b6040518080602001806020018881526020018060200180602001806020018060200187810387528e818151815260200191508051906020019080838360005b8381101561051c578082015181840152602081019050610501565b50505050905090810190601f1680156105495780820380516001836020036101000a031916815260200191505b5087810386528d818151815260200191508051906020019080838360005b83811015610582578082015181840152602081019050610567565b50505050905090810190601f1680156105af5780820380516001836020036101000a031916815260200191505b5087810385528b818151815260200191508051906020019080838360005b838110156105e85780820151818401526020810190506105cd565b50505050905090810190601f1680156106155780820380516001836020036101000a031916815260200191505b5087810384528a818151815260200191508051906020019080838360005b8381101561064e578082015181840152602081019050610633565b50505050905090810190601f16801561067b5780820380516001836020036101000a031916815260200191505b50878103835289818151815260200191508051906020019080838360005b838110156106b4578082015181840152602081019050610699565b50505050905090810190601f1680156106e15780820380516001836020036101000a031916815260200191505b50878103825288818151815260200191508051906020019080838360005b8381101561071a5780820151818401526020810190506106ff565b50505050905090810190601f1680156107475780820380516001836020036101000a031916815260200191505b509d505050505050505050505050505060405180910390f35b6108196004803603602081101561077657600080fd5b810190808035906020019064010000000081111561079357600080fd5b8201836020820111156107a557600080fd5b803590602001918460018302840111640100000000831117156107c757600080fd5b91908080601f016020809104026020016040519081016040528093929190818152602001838380828437600081840152601f19601f820116905080830192505050505050509192919290505050611046565b6040518080602001806020018881526020018060200180602001806020018060200187810387528e818151815260200191508051906020019080838360005b83811015610873578082015181840152602081019050610858565b50505050905090810190601f1680156108a05780820380516001836020036101000a031916815260200191505b5087810386528d818151815260200191508051906020019080838360005b838110156108d95780820151818401526020810190506108be565b50505050905090810190601f1680156109065780820380516001836020036101000a031916815260200191505b5087810385528b818151815260200191508051906020019080838360005b8381101561093f578082015181840152602081019050610924565b50505050905090810190601f16801561096c5780820380516001836020036101000a031916815260200191505b5087810384528a818151815260200191508051906020019080838360005b838110156109a557808201518184015260208101905061098a565b50505050905090810190601f1680156109d25780820380516001836020036101000a031916815260200191505b50878103835289818151815260200191508051906020019080838360005b83811015610a0b5780820151818401526020810190506109f0565b50505050905090810190601f168015610a385780820380516001836020036101000a031916815260200191505b50878103825288818151815260200191508051906020019080838360005b83811015610a71578082015181840152602081019050610a56565b50505050905090810190601f168015610a9e5780820380516001836020036101000a031916815260200191505b509d505050505050505050505050505060405180910390f35b6000610ac289611526565b905060008060008381526020019081526020016000206002015414610b32576040517f08c379a00000000000000000000000000000000000000000000000000000000081526004018080602001828103825260248152602001806116346024913960400191505060405180910390fd5b6040518060e00160405280898152602001888152602001878152602001868152602001858152602001848152602001838152506000808381526020019081526020016000206000820151816000019080519060200190610b93929190611551565b506020820151816001019080519060200190610bb0929190611551565b50604082015181600201556060820151816003019080519060200190610bd7929190611551565b506080820151816004019080519060200190610bf4929190611551565b5060a0820151816005019080519060200190610c11929190611551565b5060c0820151816006019080519060200190610c2e929190611551565b509050507ff54e0f0055ffae318a21890316ed523f8a60aa59aaa279dfdcae7176155ec0db816040518082815260200191505060405180910390a1505050505050505050565b6000602052806000526040600020600091509050806000018054600181600116156101000203166002900480601f016020809104026020016040519081016040528092919081815260200182805460018160011615610100020316600290048015610d205780601f10610cf557610100808354040283529160200191610d20565b820191906000526020600020905b815481529060010190602001808311610d0357829003601f168201915b505050505090806001018054600181600116156101000203166002900480601f016020809104026020016040519081016040528092919081815260200182805460018160011615610100020316600290048015610dbe5780601f10610d9357610100808354040283529160200191610dbe565b820191906000526020600020905b815481529060010190602001808311610da157829003601f168201915b505050505090806002015490806003018054600181600116156101000203166002900480601f016020809104026020016040519081016040528092919081815260200182805460018160011615610100020316600290048015610e625780601f10610e3757610100808354040283529160200191610e62565b820191906000526020600020905b815481529060010190602001808311610e4557829003601f168201915b505050505090806004018054600181600116156101000203166002900480601f016020809104026020016040519081016040528092919081815260200182805460018160011615610100020316600290048015610f005780601f10610ed557610100808354040283529160200191610f00565b820191906000526020600020905b815481529060010190602001808311610ee357829003601f168201915b505050505090806005018054600181600116156101000203166002900480601f016020809104026020016040519081016040528092919081815260200182805460018160011615610100020316600290048015610f9e5780601f10610f7357610100808354040283529160200191610f9e565b820191906000526020600020905b815481529060010190602001808311610f8157829003601f168201915b505050505090806006018054600181600116156101000203166002900480601f01602080910402602001604051908101604052809291908181526020018280546001816001161561010002031660029004801561103c5780601f106110115761010080835404028352916020019161103c565b820191906000526020600020905b81548152906001019060200180831161101f57829003601f168201915b5050505050905087565b6060806000606080606080600061105c89611526565b90506110666115d1565b6000808381526020019081526020016000206040518060e0016040529081600082018054600181600116156101000203166002900480601f01602080910402602001604051908101604052809291908181526020018280546001816001161561010002031660029004801561111c5780601f106110f15761010080835404028352916020019161111c565b820191906000526020600020905b8154815290600101906020018083116110ff57829003601f168201915b50505050508152602001600182018054600181600116156101000203166002900480601f0160208091040260200160405190810160405280929190818152602001828054600181600116156101000203166002900480156111be5780601f10611193576101008083540402835291602001916111be565b820191906000526020600020905b8154815290600101906020018083116111a157829003601f168201915b5050505050815260200160028201548152602001600382018054600181600116156101000203166002900480601f01602080910402602001604051908101604052809291908181526020018280546001816001161561010002031660029004801561126a5780601f1061123f5761010080835404028352916020019161126a565b820191906000526020600020905b81548152906001019060200180831161124d57829003601f168201915b50505050508152602001600482018054600181600116156101000203166002900480601f01602080910402602001604051908101604052809291908181526020018280546001816001161561010002031660029004801561130c5780601f106112e15761010080835404028352916020019161130c565b820191906000526020600020905b8154815290600101906020018083116112ef57829003601f168201915b50505050508152602001600582018054600181600116156101000203166002900480601f0160208091040260200160405190810160405280929190818152602001828054600181600116156101000203166002900480156113ae5780601f10611383576101008083540402835291602001916113ae565b820191906000526020600020905b81548152906001019060200180831161139157829003601f168201915b50505050508152602001600682018054600181600116156101000203166002900480601f0160208091040260200160405190810160405280929190818152602001828054600181600116156101000203166002900480156114505780601f1061142557610100808354040283529160200191611450565b820191906000526020600020905b81548152906001019060200180831161143357829003601f168201915b50505050508152505090506000816040015114156114d6576040517f08c379a000000000000000000000000000000000000000000000000000000000815260040180806020018281038252600e8152602001807f4e6f20646174612065786973747300000000000000000000000000000000000081525060200191505060405180910390fd5b806000015181602001518260400151836060015184608001518560a001518660c0015186965085955083935082925081915080905098509850985098509850985098505050919395979092949650565b60006060829050600081511415611543576000801b91505061154c565b60208301519150505b919050565b828054600181600116156101000203166002900490600052602060002090601f016020900481019282601f1061159257805160ff19168380011785556115c0565b828001600101855582156115c0579182015b828111156115bf5782518255916020019190600101906115a4565b5b5090506115cd919061160e565b5090565b6040518060e00160405280606081526020016060815260200160008152602001606081526020016060815260200160608152602001606081525090565b61163091905b8082111561162c576000816000905550600101611614565b5090565b9056fe4469706c6f6d61207769746820676976656e20696420616c726561647920657869737473a265627a7a7231582019220c7b7a1001744cbeda7e3ea3f7e6eb301df81b96165bc1e26046df82b4e564736f6c63430005100032",
  "source": "pragma solidity ^0.5.16;\r\n\r\ncontract Validation {\r\n    constructor() public {}\r\n\r\n    struct Certificate {\r\n        string Given_name;\r\n        string Family_name;\r\n        uint256 National_identification_number;\r\n        string Date_of_birth;\r\n        string Scientific_discipline;\r\n        string Diploma_issued_by;\r\n        string Diploma_issue_date;\r\n    }\r\n\r\n    mapping(bytes32 => Certificate) public certificates;\r\n\r\n    event certificateGenerated(bytes32 _certificateId);\r\n\r\n    function stringToBytes32(string memory source) private pure returns (bytes32 result) {\r\n        bytes memory tempEmptyStringTest = bytes(source);\r\n        if (tempEmptyStringTest.length == 0) {\r\n            return 0x0;\r\n        }\r\n        assembly {\r\n                result := mload(add(source, 32))\r\n        }\r\n    }\r\n\r\n    function generateCertificate(\r\n        string memory _id,\r\n        string memory _Given_name,\r\n        string memory _Family_name,\r\n        uint256 _National_identification_number,\r\n        string memory _Date_of_birth,\r\n        string memory _Scientific_discipline,\r\n        string memory _Diploma_issued_by,\r\n        string memory _Diploma_issue_date) public {\r\n        bytes32 byte_id = stringToBytes32(_id);\r\n        require(certificates[byte_id].National_identification_number == 0, \"Diploma with given id already exists\");\r\n        certificates[byte_id] = Certificate(_Given_name, _Family_name, _National_identification_number, _Date_of_birth, \r\n        _Scientific_discipline, _Diploma_issued_by, _Diploma_issue_date);\r\n        emit certificateGenerated(byte_id);\r\n    }\r\n\r\n    function getData(string memory _id) public view returns(string memory, string memory, uint256, string memory, string memory, string memory, string memory) {\r\n        bytes32 byte_id = stringToBytes32(_id);\r\n        Certificate memory temp = certificates[byte_id];\r\n        require(temp.National_identification_number != 0, \"No data exists\");\r\n        return (temp.Given_name, temp.Family_name, temp.National_identification_number, temp.Date_of_birth, temp.Scientific_discipline, temp.Diploma_issued_by, temp.Diploma_issue_date);\r\n    }\r\n}\r\n",
  "sourcePath": "/home/maroua/FakeStop_/Portfolio_Project/Verification_Diploma/contracts/Validation.sol",
  "compiler": {
    "name": "solc",
    "version": "0.5.16+commit.9c3226ce.Emscripten.clang"
  },
  "schemaVersion": "3.4.3",
  "updatedAt": "2021-11-08T18:31:44.245Z",
  "networkType": "ethereum",
  "devdoc": {
    "methods": {}
  },
  "userdoc": {
    "methods": {}
  }
}